:100000000C9434000C943E000C943E000C943E0082
:100010000C943E000C943E000C943E000C943E0068
:100020000C943E000C943E000C943E000C943E0058
:100030000C943E000C943E000C943E000C943E0048
:100040000C943E000C943E000C943E000C943E0038
:100050000C943E000C943E000C943E000C943E0028
:100060000C943E000C943E0011241FBECFEFD8E04C
:10007000DEBFCDBF0E9498000C94A3000C9400003A
:100080009FEF94B99AB98BB92898299A85E08A95F7
:10009000F1F7000029988FED9EE20197F1F700C07B
:1000A0000000089583E085B98FEF8BB92FEF83EFC0
:1000B00091E0215080409040E1F700C0000080E1D5
:1000C00090E00E94400082E090E00E94400081E0C9
:1000D00090E00E9440008FE39FE10197F1F700C09C
:1000E000000008958BB9289A299885E08A95F1F740
:1000F0000000299A95E09A95F1F7000029988FEA77
:1001000094E00197F1F700C000000895CF93DF93CA
:10011000EC018991811103C0DF91CF9108950E9474
:100120007200F7CF8093BA0084E48093BC000895F6
:100130000E9452008AE08093BA0084E48093BC005D
:0A01400090E080E00895F894FFCFEE
:00000001FF
