:100000000C9434000C9449000C9449000C94490061
:100010000C9449000C9449000C9449000C9449003C
:100020000C9449000C9449000C9449000C9449002C
:100030000C9449000C9449000C9449000C9449001C
:100040000C9449000C9449000C9449000C9449000C
:100050000C9449000C9449000C9449000C944900FC
:100060000C9449000C94490011241FBECFEFD4E03A
:10007000DEBFCDBF11E0A0E0B1E0E8E1F2E002C0F8
:1000800005900D92AA31B107D9F70E94D8000C94BF
:100090000A010C9400009BB19F70807F982B9BB944
:1000A000299A87EC90E00197F1F700C000002998A9
:1000B0008FE193E00197F1F700C000000895CF931E
:1000C000DF932898C82FD0E0CE010E944B00CE01CC
:1000D00024E0880F991F2A95E1F7DF91CF910C94C6
:1000E0004B00CF93DF93289AC82FD0E0CE010E9417
:1000F0004B00CE0124E0880F991F2A95E1F7DF918C
:10010000CF910C944B008FEF84B98AB92FEF83EC19
:1001100099E0215080409040E1F700C0000083E367
:100120000E945F002FEF89EF90E0215080409040C7
:10013000E1F700C0000082E30E945F002FEF89EF2B
:1001400090E0215080409040E1F700C0000088E23C
:100150000E945F002FEF89EF90E021508040904097
:10016000E1F700C000008CE00E945F002FEF89EFF4
:1001700090E0215080409040E1F700C0000081E015
:100180000E945F002FEF89EF90E021508040904067
:10019000E1F700C000000895CF93DF93EC0189914F
:1001A000811103C0DF91CF9108950E947100F7CFB4
:1001B0000E94830080E091E00E94CC002FEF83ED4D
:1001C00090E3215080409040E1F700C0000081E0C2
:1001D0000E945F008FE99FE00197F1F700C00000E7
:1001E00080EC0E945F0085E191E00E94CC009FEFCF
:1001F00023ED80E3915020408040E1F700C00000F3
:1002000081E00E945F008FE99FE00197F1F700C055
:080210000000D0CFF894FFCFED
:1002180049206C696B652048656C6C6F2053686970
:0A02280076616E69004C65742000D9
:00000001FF
