:100000000C9434000C9449000C9449000C94490061
:100010000C9449000C9449000C9449000C9449003C
:100020000C9449000C9449000C9449000C9449002C
:100030000C9449000C9449000C9449000C9449001C
:100040000C9449000C9449000C9449000C9449000C
:100050000C9449000C9449000C9449000C944900FC
:100060000C9449000C94490011241FBECFEFD8E036
:10007000DEBFCDBF11E0A0E0B1E0EAE9F1E002C0EF
:1000800005900D92A631B107D9F70E9483000C9418
:10009000CB000C9400009FEF94B99AB98BB92898C3
:1000A000299A85E08A95F1F7000029988FED9EE264
:1000B0000197F1F700C0000008959FEF94B99AB935
:1000C0008BB9289A299885E08A95F1F70000299A3A
:1000D00095E09A95F1F7000029988FEA94E001974E
:1000E000F1F700C000000895CF93DF93EC018991F0
:1000F000811103C0DF91CF9108950E945D00F7CF79
:1001000081E00C944B002FEF83EF91E02150804071
:100110009040E1F700C0000088E30E944B008EE0B1
:100120000E944B000E9480008FE39FE10197F1F74E
:1001300000C0000081E00E944B000E94800080E02F
:1001400091E00E9474009FEF23ED80E391502040E6
:100150008040E1F700C000000E94800085E091E04F
:100160000E9474009FEF23ED80E391502040804077
:10017000E1F700C000000E9480008DE091E00E9445
:1001800074009FEF23ED80E3915020408040E1F721
:0A01900000C00000D2CFF894FFCFAA
:10019A0050756A610053686976616E690053776FBA
:0601AA00726E696D000099
:00000001FF
