:100000000C9434000C9449000C9449000C94490061
:100010000C9449000C9449000C9449000C9449003C
:100020000C9449000C9449000C9449000C9449002C
:100030000C9449000C9449000C9449000C9449001C
:100040000C9449000C9449000C9449000C9449000C
:100050000C9449000C9449000C9449000C944900FC
:100060000C94F5000C94490011241FBECFEFD4E08E
:10007000DEBFCDBF11E0A0E0B1E0E4EEF2E002C0EF
:1000800005900D92AE32B107D9F70E9439010C9458
:1000900070010C9400009BB19F70807F982B9BB9DE
:1000A000299A87EC90E00197F1F700C000002998A9
:1000B0008FE193E00197F1F700C000000895CF931E
:1000C000DF932898C82FD0E0CE010E944B00CE01CC
:1000D00024E0880F991F2A95E1F7DF91CF910C94C6
:1000E0004B00CF93DF93289AC82FD0E0CE010E9417
:1000F0004B00CE0124E0880F991F2A95E1F7DF918C
:10010000CF910C944B008FEF84B98AB92FEF83EC19
:1001100099E0215080409040E1F700C0000083E367
:100120000E945F002FEF89EF90E0215080409040C7
:10013000E1F700C0000082E30E945F002FEF89EF2B
:1001400090E0215080409040E1F700C0000088E23C
:100150000E945F002FEF89EF90E021508040904097
:10016000E1F700C000008CE00E945F002FEF89EFF4
:1001700090E0215080409040E1F700C0000081E015
:100180000E945F002FEF89EF90E021508040904067
:10019000E1F700C000000895CF93DF93EC0189914F
:1001A000811103C0DF91CF9108950E947100F7CFB4
:1001B000880F8093BA0085EC8093BC0078942FEF71
:1001C00083ED90E3215080409040E1F700C00000B3
:1001D00081E00E945F008FE99FE00197F1F700C086
:1001E000000080E091E00C94CC001F920F920FB6BB
:1001F0000F9211242F933F934F935F936F937F93AD
:100200008F939F93AF93BF93EF93FF9381E00E94EF
:100210005F008FE99FE00197F1F700C0000080E1E7
:1002200091E00E94CC008091B900887F803611F067
:10023000803849F48091BB000E9471008091BC001D
:10024000846C8093BC008091BC00846C8093BC0063
:10025000FF91EF91BF91AF919F918F917F916F919E
:100260005F914F913F912F910F900FBE0F901F9074
:1002700018950E94830087E40E94D8002FEF87EA38
:1002800091E6215080409040E1F700C0000081E0FD
:100290000E945F008FE39FE10197F1F700C000002B
:1002A00084E191E00E94CC009FEF27EA81E6915023
:1002B00020408040E1F700C0000080EC0E945F0019
:1002C00082E291E00E94CC009FEF27EA81E6915004
:1002D00020408040E1F700C0000090E080E00895F9
:0402E000F894FFCFC0
:1002E40049324320496E697469616C697A656400B6
:1002F40041636B0048656C6C6F212050656F706CB6
:0E030400650049276D20493243204C434400D8
:00000001FF
