:100000000C9434000C943E000C943E000C943E0082
:100010000C943E000C943E000C943E000C943E0068
:100020000C943E000C943E000C943E000C943E0058
:100030000C943E000C943E000C943E000C943E0048
:100040000C943E000C943E000C943E000C943E0038
:100050000C943E000C943E000C943E000C943E0028
:100060000C943E000C943E0011241FBECFEFD4E050
:10007000DEBFCDBF0E9497000C949D000C94000041
:100080009FEF94B99AB98BB92898299A85E08A95F7
:10009000F1F7000029988FED9EE20197F1F700C07B
:1000A000000008958BB9289A299885E08A95F1F780
:1000B0000000299A95E09A95F1F7000029988FEAB7
:1000C00094E00197F1F700C00000089583E085B93E
:1000D0008FEF8BB92FEF83EF91E02150804090405C
:1000E000E1F700C0000080E10E94400082E00E9431
:1000F000400081E00E9440008FE39FE10197F1F70B
:1001000000C000000895CF93DF93EC018991811125
:1001100003C0DF91CF9108950E945200F7CF880F5E
:100120008093BA0084EC8093BC00789408958FEF9C
:0E01300084B9289A90E080E00895F894FFCFFB
:00000001FF
